{
  "_format": "hh-sol-artifact-1",
  "contractName": "BloodBank",
  "sourceName": "contracts/BloodBank.sol",
  "abi": [
    {
      "anonymous": false,
      "inputs": [
        {
          "indexed": true,
          "internalType": "address",
          "name": "donorAddress",
          "type": "address"
        },
        {
          "indexed": false,
          "internalType": "string",
          "name": "bloodType",
          "type": "string"
        }
      ],
      "name": "BloodDonated",
      "type": "event"
    },
    {
      "anonymous": false,
      "inputs": [
        {
          "indexed": true,
          "internalType": "address",
          "name": "donorAddress",
          "type": "address"
        },
        {
          "indexed": false,
          "internalType": "string",
          "name": "name",
          "type": "string"
        },
        {
          "indexed": false,
          "internalType": "string",
          "name": "bloodType",
          "type": "string"
        }
      ],
      "name": "DonorRegistered",
      "type": "event"
    },
    {
      "inputs": [],
      "name": "donateBlood",
      "outputs": [],
      "stateMutability": "nonpayable",
      "type": "function"
    },
    {
      "inputs": [
        {
          "internalType": "uint256",
          "name": "",
          "type": "uint256"
        }
      ],
      "name": "donorList",
      "outputs": [
        {
          "internalType": "address",
          "name": "",
          "type": "address"
        }
      ],
      "stateMutability": "view",
      "type": "function"
    },
    {
      "inputs": [
        {
          "internalType": "address",
          "name": "",
          "type": "address"
        }
      ],
      "name": "donors",
      "outputs": [
        {
          "internalType": "string",
          "name": "name",
          "type": "string"
        },
        {
          "internalType": "uint256",
          "name": "age",
          "type": "uint256"
        },
        {
          "internalType": "string",
          "name": "bloodType",
          "type": "string"
        },
        {
          "internalType": "string",
          "name": "location",
          "type": "string"
        },
        {
          "internalType": "bool",
          "name": "isAvailable",
          "type": "bool"
        }
      ],
      "stateMutability": "view",
      "type": "function"
    },
    {
      "inputs": [],
      "name": "getAllDonors",
      "outputs": [
        {
          "internalType": "address[]",
          "name": "",
          "type": "address[]"
        }
      ],
      "stateMutability": "view",
      "type": "function"
    },
    {
      "inputs": [
        {
          "internalType": "address",
          "name": "_donor",
          "type": "address"
        }
      ],
      "name": "getDonorDetails",
      "outputs": [
        {
          "internalType": "string",
          "name": "",
          "type": "string"
        },
        {
          "internalType": "uint256",
          "name": "",
          "type": "uint256"
        },
        {
          "internalType": "string",
          "name": "",
          "type": "string"
        },
        {
          "internalType": "string",
          "name": "",
          "type": "string"
        },
        {
          "internalType": "bool",
          "name": "",
          "type": "bool"
        }
      ],
      "stateMutability": "view",
      "type": "function"
    },
    {
      "inputs": [
        {
          "internalType": "string",
          "name": "_name",
          "type": "string"
        },
        {
          "internalType": "uint256",
          "name": "_age",
          "type": "uint256"
        },
        {
          "internalType": "string",
          "name": "_bloodType",
          "type": "string"
        },
        {
          "internalType": "string",
          "name": "_location",
          "type": "string"
        }
      ],
      "name": "registerDonor",
      "outputs": [],
      "stateMutability": "nonpayable",
      "type": "function"
    }
  ],
  "bytecode": "0x6080604052348015600f57600080fd5b506113478061001f6000396000f3fe608060405234801561001057600080fd5b50600436106100625760003560e01c80635eed3dcb1461006757806398e36b0414610097578063afcb67d3146100b5578063ca0cdea8146100e9578063dad9fef01461011d578063fb01e73f14610139575b600080fd5b610081600480360381019061007c9190610984565b610143565b60405161008e91906109f2565b60405180910390f35b61009f610182565b6040516100ac9190610acb565b60405180910390f35b6100cf60048036038101906100ca9190610b19565b610210565b6040516100e0959493929190610c00565b60405180910390f35b61010360048036038101906100fe9190610b19565b61046d565b604051610114959493929190610c00565b60405180910390f35b61013760048036038101906101329190610d9d565b610648565b005b61014161081c565b005b6001818154811061015357600080fd5b906000526020600020016000915054906101000a900473ffffffffffffffffffffffffffffffffffffffff1681565b6060600180548060200260200160405190810160405280929190818152602001828054801561020657602002820191906000526020600020905b8160009054906101000a900473ffffffffffffffffffffffffffffffffffffffff1673ffffffffffffffffffffffffffffffffffffffff16815260200190600101908083116101bc575b5050505050905090565b606060006060806000806000808873ffffffffffffffffffffffffffffffffffffffff1673ffffffffffffffffffffffffffffffffffffffff1681526020019081526020016000206040518060a001604052908160008201805461027390610e87565b80601f016020809104026020016040519081016040528092919081815260200182805461029f90610e87565b80156102ec5780601f106102c1576101008083540402835291602001916102ec565b820191906000526020600020905b8154815290600101906020018083116102cf57829003601f168201915b505050505081526020016001820154815260200160028201805461030f90610e87565b80601f016020809104026020016040519081016040528092919081815260200182805461033b90610e87565b80156103885780601f1061035d57610100808354040283529160200191610388565b820191906000526020600020905b81548152906001019060200180831161036b57829003601f168201915b505050505081526020016003820180546103a190610e87565b80601f01602080910402602001604051908101604052809291908181526020018280546103cd90610e87565b801561041a5780601f106103ef5761010080835404028352916020019161041a565b820191906000526020600020905b8154815290600101906020018083116103fd57829003601f168201915b505050505081526020016004820160009054906101000a900460ff161515151581525050905080600001518160200151826040015183606001518460800151955095509550955095505091939590929450565b600060205280600052604060002060009150905080600001805461049090610e87565b80601f01602080910402602001604051908101604052809291908181526020018280546104bc90610e87565b80156105095780601f106104de57610100808354040283529160200191610509565b820191906000526020600020905b8154815290600101906020018083116104ec57829003601f168201915b50505050509080600101549080600201805461052490610e87565b80601f016020809104026020016040519081016040528092919081815260200182805461055090610e87565b801561059d5780601f106105725761010080835404028352916020019161059d565b820191906000526020600020905b81548152906001019060200180831161058057829003601f168201915b5050505050908060030180546105b290610e87565b80601f01602080910402602001604051908101604052809291908181526020018280546105de90610e87565b801561062b5780601f106106005761010080835404028352916020019161062b565b820191906000526020600020905b81548152906001019060200180831161060e57829003601f168201915b5050505050908060040160009054906101000a900460ff16905085565b601283101561068c576040517f08c379a000000000000000000000000000000000000000000000000000000000815260040161068390610f2a565b60405180910390fd5b6040518060a00160405280858152602001848152602001838152602001828152602001600115158152506000803373ffffffffffffffffffffffffffffffffffffffff1673ffffffffffffffffffffffffffffffffffffffff168152602001908152602001600020600082015181600001908161070991906110f6565b5060208201518160010155604082015181600201908161072991906110f6565b50606082015181600301908161073f91906110f6565b5060808201518160040160006101000a81548160ff0219169083151502179055509050506001339080600181540180825580915050600190039060005260206000200160009091909190916101000a81548173ffffffffffffffffffffffffffffffffffffffff021916908373ffffffffffffffffffffffffffffffffffffffff1602179055503373ffffffffffffffffffffffffffffffffffffffff167f7cefa9d45415496742c108166cfd8e4bae2f2089a47b4b375e65d407bdbdace5858460405161080e9291906111c8565b60405180910390a250505050565b6000803373ffffffffffffffffffffffffffffffffffffffff1673ffffffffffffffffffffffffffffffffffffffff16815260200190815260200160002060040160009054906101000a900460ff166108aa576040517f08c379a00000000000000000000000000000000000000000000000000000000081526004016108a19061124b565b60405180910390fd5b3373ffffffffffffffffffffffffffffffffffffffff167f5df0d276b5f152642e59b7fad0f141f96a49690c27165efc98a4a064b996bc476000803373ffffffffffffffffffffffffffffffffffffffff1673ffffffffffffffffffffffffffffffffffffffff16815260200190815260200160002060020160405161093091906112ef565b60405180910390a2565b6000604051905090565b600080fd5b600080fd5b6000819050919050565b6109618161094e565b811461096c57600080fd5b50565b60008135905061097e81610958565b92915050565b60006020828403121561099a57610999610944565b5b60006109a88482850161096f565b91505092915050565b600073ffffffffffffffffffffffffffffffffffffffff82169050919050565b60006109dc826109b1565b9050919050565b6109ec816109d1565b82525050565b6000602082019050610a0760008301846109e3565b92915050565b600081519050919050565b600082825260208201905092915050565b6000819050602082019050919050565b610a42816109d1565b82525050565b6000610a548383610a39565b60208301905092915050565b6000602082019050919050565b6000610a7882610a0d565b610a828185610a18565b9350610a8d83610a29565b8060005b83811015610abe578151610aa58882610a48565b9750610ab083610a60565b925050600181019050610a91565b5085935050505092915050565b60006020820190508181036000830152610ae58184610a6d565b905092915050565b610af6816109d1565b8114610b0157600080fd5b50565b600081359050610b1381610aed565b92915050565b600060208284031215610b2f57610b2e610944565b5b6000610b3d84828501610b04565b91505092915050565b600081519050919050565b600082825260208201905092915050565b60005b83811015610b80578082015181840152602081019050610b65565b60008484015250505050565b6000601f19601f8301169050919050565b6000610ba882610b46565b610bb28185610b51565b9350610bc2818560208601610b62565b610bcb81610b8c565b840191505092915050565b610bdf8161094e565b82525050565b60008115159050919050565b610bfa81610be5565b82525050565b600060a0820190508181036000830152610c1a8188610b9d565b9050610c296020830187610bd6565b8181036040830152610c3b8186610b9d565b90508181036060830152610c4f8185610b9d565b9050610c5e6080830184610bf1565b9695505050505050565b600080fd5b600080fd5b7f4e487b7100000000000000000000000000000000000000000000000000000000600052604160045260246000fd5b610caa82610b8c565b810181811067ffffffffffffffff82111715610cc957610cc8610c72565b5b80604052505050565b6000610cdc61093a565b9050610ce88282610ca1565b919050565b600067ffffffffffffffff821115610d0857610d07610c72565b5b610d1182610b8c565b9050602081019050919050565b82818337600083830152505050565b6000610d40610d3b84610ced565b610cd2565b905082815260208101848484011115610d5c57610d5b610c6d565b5b610d67848285610d1e565b509392505050565b600082601f830112610d8457610d83610c68565b5b8135610d94848260208601610d2d565b91505092915050565b60008060008060808587031215610db757610db6610944565b5b600085013567ffffffffffffffff811115610dd557610dd4610949565b5b610de187828801610d6f565b9450506020610df28782880161096f565b935050604085013567ffffffffffffffff811115610e1357610e12610949565b5b610e1f87828801610d6f565b925050606085013567ffffffffffffffff811115610e4057610e3f610949565b5b610e4c87828801610d6f565b91505092959194509250565b7f4e487b7100000000000000000000000000000000000000000000000000000000600052602260045260246000fd5b60006002820490506001821680610e9f57607f821691505b602082108103610eb257610eb1610e58565b5b50919050565b7f446f6e6f72206d757374206265206174206c656173742031382079656172732060008201527f6f6c640000000000000000000000000000000000000000000000000000000000602082015250565b6000610f14602383610b51565b9150610f1f82610eb8565b604082019050919050565b60006020820190508181036000830152610f4381610f07565b9050919050565b60008190508160005260206000209050919050565b60006020601f8301049050919050565b600082821b905092915050565b600060088302610fac7fffffffffffffffffffffffffffffffffffffffffffffffffffffffffffffffff82610f6f565b610fb68683610f6f565b95508019841693508086168417925050509392505050565b6000819050919050565b6000610ff3610fee610fe98461094e565b610fce565b61094e565b9050919050565b6000819050919050565b61100d83610fd8565b61102161101982610ffa565b848454610f7c565b825550505050565b600090565b611036611029565b611041818484611004565b505050565b5b818110156110655761105a60008261102e565b600181019050611047565b5050565b601f8211156110aa5761107b81610f4a565b61108484610f5f565b81016020851015611093578190505b6110a761109f85610f5f565b830182611046565b50505b505050565b600082821c905092915050565b60006110cd600019846008026110af565b1980831691505092915050565b60006110e683836110bc565b9150826002028217905092915050565b6110ff82610b46565b67ffffffffffffffff81111561111857611117610c72565b5b6111228254610e87565b61112d828285611069565b600060209050601f831160018114611160576000841561114e578287015190505b61115885826110da565b8655506111c0565b601f19841661116e86610f4a565b60005b8281101561119657848901518255600182019150602085019450602081019050611171565b868310156111b357848901516111af601f8916826110bc565b8355505b6001600288020188555050505b505050505050565b600060408201905081810360008301526111e28185610b9d565b905081810360208301526111f68184610b9d565b90509392505050565b7f446f6e6f72206973206e6f7420617661696c61626c6500000000000000000000600082015250565b6000611235601683610b51565b9150611240826111ff565b602082019050919050565b6000602082019050818103600083015261126481611228565b9050919050565b6000815461127881610e87565b6112828186610b51565b9450600182166000811461129d57600181146112b3576112e6565b60ff1983168652811515602002860193506112e6565b6112bc85610f4a565b60005b838110156112de578154818901526001820191506020810190506112bf565b808801955050505b50505092915050565b60006020820190508181036000830152611309818461126b565b90509291505056fea26469706673582212204d5876865d9ed12d2c3a7ee2caa040d45844bf5f296a46615ed59344ce26b3f364736f6c634300081c0033",
  "linkReferences": {},
  "deployedLinkReferences": {}
}